:100000000C9458000C9480000C9480000C94800098
:100010000C9480000C9480000C9480000C94800060
:100020000C9480000C9480000C9480000C94800050
:100030000C9480000C9480000C9480000C94800040
:100040000C94A1030C9480000C946F030C9449034E
:100050000C9480000C9480000C9480000C94800020
:100060000C9480000C948000000000002500280003
:100070002B0000000000240027002A0000000000E0
:1000800023002600290004040404040404040202DA
:100090000202020203030303030301020408102007
:1000A0004080010204081020010204081020EB0324
:1000B00011241FBECFEFD8E0DEBFCDBF22E0A4E405
:1000C000B1E001C01D92AA34B207E1F711E0A0E04F
:1000D000B1E0E8ECF2E102C005900D92A434B10762
:1000E000D9F710E0C8E5D0E004C02197FE010E94D6
:1000F0005709C735D107C9F70E9498040C946209C3
:100100000C940000E5E5F1E0A089B18982E08C93D0
:10011000A485B5851C92A685B7858FEC8C93108E2F
:10012000A489B58986E08C93A289B3898C9180617A
:100130008C93A289B3898C9188608C93A289B389AE
:100140008C9180688C930288F389E02D80818F7D6B
:1001500080830895AF92BF92CF92DF92EF92FF9289
:100160000F931F93CF93DF93DC0128E030E081E011
:10017000AA24AA94B12C0FE010E043E2E42EF12C63
:1001800057EDC52ED12C9C911196ED91FC911297B3
:10019000492F4095582F562381F0F89452814523DA
:1001A00042834181492B4183E7012197F1F7428145
:1001B000942B92837894F6010FC0F89452814523D2
:1001C00042834181492B4183E5012197F1F7428127
:1001D000942B92837894F8013197F1F7880F21508E
:1001E000310989F6F8941196ED91FC91129791815D
:1001F0008C918095892381831196ED91FC911297C2
:1002000092818C918095892382837894DF91CF911C
:100210001F910F91FF90EF90DF90CF90BF90AF9024
:100220000895CF92DF92EF92FF920F931F93CF9397
:10023000DF936C017A018B01C0E0D0E0CE15DF05C1
:1002400089F0D8016D918D01D601ED91FC9101905D
:10025000F081E02DC6010995892B11F47E0102C0C1
:100260002196ECCFC701DF91CF911F910F91FF90A5
:10027000EF90DF90CF900895089580E090E008958A
:10028000FC01538D448D252F30E0842F90E0821B9C
:10029000930B541710F0CF96089501970895FC0121
:1002A000918D828D981761F0828DDF01A80FB11DAD
:1002B0005D968C91928D9F5F9F73928F90E00895D1
:1002C0008FEF9FEF0895FC01918D828D981731F08B
:1002D000828DE80FF11D858D90E008958FEF9FEFDF
:1002E0000895FC01918D228D892F90E0805C9F4FB5
:1002F000821B91098F739927089585E591E00E94EB
:10030000710121E0892B09F420E0822F0895FC017E
:10031000848DDF01A80FB11DA35ABF4F2C91848D8E
:1003200090E001968F739927848FA689B7892C93C3
:10033000A089B1898C9180648C93938D848D98135E
:1003400006C00288F389E02D80818F7D8083089527
:10035000EF92FF920F931F93CF93DF93EC0181E015
:10036000888F9B8D8C8D981305C0E889F9898081D1
:1003700085FD24C0F62E0B8D10E00F5F1F4F0F730D
:100380001127E02E8C8DE8120CC00FB607FCFACFB7
:10039000E889F989808185FFF5CFCE010E94870128
:1003A000F1CF8B8DFE01E80FF11DE35AFF4FF08274
:1003B0000B8FEA89FB898081806207C0EE89FF8903
:1003C0006083E889F98980818064808381E090E09E
:1003D000DF91CF911F910F91FF90EF900895CF93F0
:1003E000DF93EC01888D8823C9F0EA89FB8980813D
:1003F00085FD05C0A889B9898C9186FD0FC00FB60F
:1004000007FCF5CF808185FFF2CFA889B9898C914F
:1004100085FFEDCFCE010E948701E7CFDF91CF911D
:10042000089580E090E0892B29F00E947D018111E0
:100430000C94000008953FB7F89480914901909181
:100440004A01A0914B01B0914C0126B5A89B05C073
:100450002F3F19F00196A11DB11D3FBFBA2FA92F43
:10046000982F8827820F911DA11DB11DBC01CD01C0
:1004700042E0660F771F881F991F4A95D1F70895AC
:100480002FB7F89460914501709146018091470122
:10049000909148012FBF08958F929F92AF92BF9283
:1004A000CF92DF92EF92FF926B017C010E9440029B
:1004B0004B015C01C60ED71EE81EF91E0E944002C9
:1004C000681579058A059B0528F0C616D706E80643
:1004D000F906A0F7FF90EF90DF90CF90BF90AF901C
:1004E0009F908F900895CF92DF92EF92FF920F939B
:1004F0001F93CF93DF93DC0148E050E080E031E0D0
:1005000067E070E093E2C92ED12C0FEC10E09C91D3
:100510001196ED91FC911297F8942181292B21835A
:10052000F280292F2095F222F282EB012197F1F738
:10053000F1802F212183E6012197F1F72081789422
:10054000F8013197F1F7922309F0832B330F4150D3
:100550005109E9F6DF91CF911F910F91FF90EF9034
:10056000DF90CF900895FC0190810180F281E02D11
:10057000F8948181292F20958223818378948DE7B7
:1005800043E050E0815021F1DA011197F1F7308119
:100590003923C1F3F8948281822382838181892B5C
:1005A00081837894ABE7B7E01197F1F7F8948181F4
:1005B00028232183A3E1B1E01197F1F780819823EB
:1005C00081E009F080E07894E3E6F6E03197F1F716
:1005D00008950E945D096115710579F0FB01019094
:1005E0000020E9F73197AF01461B570BDC01ED9175
:1005F000FC910280F381E02D099480E090E0089561
:100600004F925F926F927F92EF92FF920F931F93A0
:10061000CF93DF93CDB7DEB7A1970FB6F894DEBFC7
:100620000FBECDBF7C01FA01CB0119A2223008F424
:100630002AE08E010F5D1F4F422E512C612C712C30
:10064000BF01A30192010E948F08F901CA01015064
:1006500011096A3014F4605D01C0695CD8016C93C3
:10066000232B242B252B61F7B801C7010E94EB0235
:10067000A1960FB6F894DEBF0FBECDBFDF91CF912C
:100680001F910F91FF90EF907F906F905F904F9030
:1006900008951F920F920FB60F9211242F933F933C
:1006A0004F935F936F937F938F939F93AF93BF937A
:1006B000EF93FF9385E591E00E948701FF91EF9111
:1006C000BF91AF919F918F917F916F915F914F916A
:1006D0003F912F910F900FBE0F901F9018951F9272
:1006E0000F920FB60F9211242F938F939F93EF9336
:1006F000FF93E0916501F09166018081E0916B01CB
:10070000F0916C0182FD12C0908180916E018F5F2B
:100710008F7320916F01821751F0E0916E01F0E02C
:10072000EB5AFE4F958F80936E0101C08081FF913F
:10073000EF919F918F912F910F900FBE0F901F906F
:1007400018951F920F920FB60F9211242F933F937B
:100750008F939F93AF93BF938091450190914601F2
:10076000A0914701B09148013091440123E0230F4B
:100770002D3720F40196A11DB11D05C026E8230FD9
:100780000296A11DB11D20934401809345019093D1
:100790004601A0934701B09348018091490190918F
:1007A0004A01A0914B01B0914C010196A11DB11DD0
:1007B0008093490190934A01A0934B01B0934C015F
:1007C000BF91AF919F918F913F912F910F900FBE4D
:1007D0000F901F901895CF93DF93109258011092AD
:1007E000570188EE93E0A0E0B0E080935901909328
:1007F0005A01A0935B01B0935C0184E091E0909377
:1008000056018093550185EC90E0909362018093AE
:10081000610184EC90E0909364018093630180EC2B
:1008200090E0909366018093650181EC90E0909355
:1008300068018093670182EC90E090936A01809355
:10084000690186EC90E090936C0180936B011092AB
:100850006E0110926F01109270011092710110924E
:10086000F8011092F9011092FA011092FB01109216
:10087000FC011092FD011092FE011092FF011092F6
:1008800000021092010210920202109203021092D2
:100890000402109205021092060210920702ECE97F
:1008A000F0E02491E8E8F0E084918823C1F090E042
:1008B000880F991FFC01EE58FF4FC591D491FC01A0
:1008C000E859FF4FA591B4919FB7F8948881E22F22
:1008D000E0958E2388838C91E823EC939FBFECE90D
:1008E000F0E0E491E0933C02E8E8F0E0E491F0E02D
:1008F000EE0FFF1FE458FF4F8591949190933E02B5
:1009000080933D02109247021092490210924802D1
:10091000E7E4F2E0129282E0EF33F807D9F782E0E1
:1009200090E090933B0280933A02DF91CF9108953B
:10093000CF93DF93CDB7DEB76C970FB6F894DEBFD9
:100940000FBECDBF789484B5826084BD84B58160CC
:1009500084BD85B5826085BD85B5816085BD80918A
:100960006E00816080936E00109281008091810002
:1009700082608093810080918100816080938100FA
:10098000809180008160809380008091B1008460BC
:100990008093B1008091B00081608093B00080911D
:1009A0007A00846080937A0080917A0082608093DC
:1009B0007A0080917A00816080937A0080917A0039
:1009C000806880937A001092C100109236021092D3
:1009D000370210923802109239021092F4011092EC
:1009E000F5011092F6011092F70168EB7BE080E0D0
:1009F00090E00E944C0285E591E09093350280934F
:100A000034020E9482000E9440026093F4017093BD
:100A1000F5018093F6019093F70162E171E0809116
:100A20003402909135020E94EB026AE070E080E0AF
:100A300090E00E944C0281E0809308020E948200B4
:100A40001EE00E944002672B682B692B41F40E9434
:100A50004002623071058105910508F40FC10E94C2
:100A6000400260935101709352018093530190931F
:100A70005401C0904D01D0904E01E0904F01F09094
:100A800050016C157D058E059F0540F460934D0166
:100A900070934E0180934F0190935001C0904D018F
:100AA000D0904E01E0904F01F09050019B01AC01BD
:100AB0002C193D094E095F0969017A013AEFC31605
:100AC000D104E104F10408F4D9C060934D0170939E
:100AD0004E0180934F019093500184EF91E0A0E08C
:100AE000B0E08093000290930102A0930202B093C1
:100AF0000302109204021092050210920602109254
:100B000007028091F8019091F901A091FA01B0914A
:100B1000FB018093FC019093FD01A093FE01B09333
:100B2000FF010E9440026093F8017093F9018093E5
:100B3000FA019093FB010E9440026093F4017093CC
:100B4000F5018093F6019093F7010E9440026B013A
:100B50007C0164E271E080913402909135020E9440
:100B6000EB022AE041E050E060E070E08091340266
:100B7000909135020E9400036BE271E08091340293
:100B8000909135020E94EB022AE0B701A601809104
:100B90003402909135020E9400036DE271E0809171
:100BA0003402909135020E94EB028091F8019091FD
:100BB000F901A091FA01B091FB01B701A601481B10
:100BC000590B6A0B7B0B2AE080913402909135021D
:100BD0000E9400036DE271E0809134029091350231
:100BE0000E94EB024091F8015091F9016091FA01E5
:100BF0007091FB018091FC019091FD01A091FE019B
:100C0000B091FF01481B590B6A0B7B0B2AE08091C6
:100C10003402909135020E9400036FE271E08091EE
:100C20003402909135020E94EB020E944002AB0117
:100C3000BC012AE080913402909135020E940003A9
:100C4000E0903402F090350261E371E0C7010E9448
:100C5000EB0261E271E0C7010E94EB0265E070E027
:100C600080E090E00E944C020E9440026093F801F4
:100C70007093F9018093FA019093FB01ECE3F2E0A9
:100C8000DE011F96812F01900D928A95E1F7FE01FA
:100C90003F96DE011196812F01900D928A95E1F722
:100CA000CE0101960E94B3026CECCE0101960E9427
:100CB000AA0064E4CE0101960E94AA000E941B02D1
:100CC0004B015C0188EEC82E83E0D82EE12CF12C7C
:100CD0000E941B02DC01CB0188199909AA09BB09F2
:100CE000883E9340A105B10558F091E0C91AD1089A
:100CF000E108F108A8EE8A0EA3E09A1EA11CB11C1F
:100D0000C114D104E104F10419F7CE0101960E9447
:100D1000B3026CECCE0101960E94AA006EEBCE01EC
:100D200001960E94AA00CE0101960E947302F82E3D
:100D3000CE0101960E9473026F2D70E0782B072E72
:100D4000000C880B990B0E94720720E030E040E80D
:100D50005DE30E94D1076B017C014B015C019B01AB
:100D6000AC010E945209882319F068E371E01AC0AF
:100D700026013701E89477F82FEF3FEF4FE75FE761
:100D8000C301B2010E945209811111C02FEF3FEF40
:100D90004FE75FE7C301B2010E946B0718163CF4EE
:100DA0006CE371E085E591E00E94EB028BC02FEFD0
:100DB0003FEF4FE75FE4C701B6010E944D091816E7
:100DC0001CF460E471E0EECF2FEF3FEF4FE75FECF4
:100DD000C701B6010E946B0787FDF3CF20E030E02A
:100DE000A901C701B6010E946B0787FF11C0E091FE
:100DF0005501F09156010190F081E02D6DE285E5FD
:100E000091E0099546015701B7FAB094B7F8B0944C
:100E10002AE037ED43EA5BE3C501B4010E94B20862
:100E20004B015C010E941E096B017C010E9470074E
:100E30009B01AC01C501B4010E94B1084B015C01EA
:100E40002AE0B701A60185E591E00E940003E09148
:100E50005501F09156010190F081E02D6EE285E59B
:100E600091E0099520E030E040E251E4C501B40191
:100E70000E94D1074B015C010E941E096B01E12C0D
:100E8000F12C2AE0B701A60185E591E00E9400035C
:100E9000C701B6010E9470079B01AC01C501B401F6
:100EA0000E94B10820E030E040E251E40E94D10706
:100EB0000E941E09AB0160E070E02AE085E591E048
:100EC0000E94000361E271E085E591E00E94EB027F
:100ED0000E941102B6CD0E94AD0708F481E008958A
:100EE000E89409C097FB3EF49095809570956195C4
:100EF0007F4F8F4F9F4F9923A9F0F92F96E9BB277A
:100F00009395F695879577956795B795F111F8CFF5
:100F1000FAF4BB0F11F460FF1BC06F5F7F4F8F4F60
:100F20009F4F16C0882311F096E911C0772321F056
:100F30009EE8872F762F05C0662371F096E8862FEE
:100F400070E060E02AF09A95660F771F881FDAF745
:100F5000880F9695879597F90895990F0008550F72
:100F6000AA0BE0E8FEEF16161706E807F907C0F02F
:100F700012161306E407F50798F0621B730B840B37
:100F8000950B39F40A2661F0232B242B252B21F411
:100F900008950A2609F4A140A6958FEF811D811DB1
:100FA00008950E94E4070C9455080E94470838F001
:100FB0000E944E0820F0952311F00C943E080C94EA
:100FC000440811240C9489080E94660870F3959FC8
:100FD000C1F3950F50E0551F629FF001729FBB2730
:100FE000F00DB11D639FAA27F00DB11DAA1F649FCC
:100FF0006627B00DA11D661F829F2227B00DA11D7F
:10100000621F739FB00DA11D621F839FA00D611D04
:10101000221F749F3327A00D611D231F849F600D25
:10102000211D822F762F6A2F11249F5750409AF04E
:10103000F1F088234AF0EE0FFF1FBB1F661F771FDA
:10104000881F91505040A9F79E3F510580F00C94A5
:101050003E080C9489085F3FE4F3983ED4F38695EC
:1010600077956795B795F795E7959F5FC1F7FE2B45
:10107000880F911D9695879597F9089597F99F6721
:1010800080E870E060E008959FEF80EC0895002410
:101090000A941616170618060906089500240A94DD
:1010A00012161306140605060895092E0394000C63
:1010B00011F4882352F0BB0F40F4BF2B11F460FFF2
:1010C00004C06F5F7F4F8F4F9F4F089557FD90581B
:1010D000440F551F59F05F3F71F04795880F97FBFC
:1010E000991F61F09F3F79F08795089512161306B6
:1010F0001406551FF2CF4695F1DF08C016161706E5
:101100001806991FF1CF8695710561050894089519
:10111000E894BB2766277727CB0197F90895A1E2CA
:101120001A2EAA1BBB1BFD010DC0AA1FBB1FEE1F61
:10113000FF1FA217B307E407F50720F0A21BB30BAC
:10114000E40BF50B661F771F881F991F1A9469F728
:1011500060957095809590959B01AC01BD01CF0184
:1011600008955058BB27AA270E94C9080C94550817
:101170000E94470838F00E944E0820F039F49F3F43
:1011800019F426F40C9444080EF4E095E7FB0C9453
:101190003E08E92F0E94660858F3BA1762077307E2
:1011A0008407950720F079F4A6F50C9488080EF4CE
:1011B000E0950B2EBA2FA02D0B01B90190010C0167
:1011C000CA01A0011124FF27591B99F0593F50F47F
:1011D000503E68F11A16F040A22F232F342F4427D7
:1011E000585FF3CF469537952795A795F0405395CF
:1011F000C9F77EF41F16BA0B620B730B840BBAF09F
:101200009150A1F0FF0FBB1F661F771F881FC2F709
:101210000EC0BA0F621F731F841F48F4879577951D
:101220006795B795F7959E3F08F0B0CF9395880FD7
:1012300008F09927EE0F9795879508950E946E08FC
:1012400088F09F5798F0B92F9927B751B0F0E1F087
:10125000660F771F881F991F1AF0BA95C9F714C037
:10126000B13091F00E948808B1E008950C9488088C
:10127000672F782F8827B85F39F0B93FCCF3869570
:1012800077956795B395D9F73EF4909580957095CD
:1012900061957F4F8F4F9F4F08950E94AD0708F4CF
:1012A0008FEF08950E94AD07880B990B0895EE0FFC
:1012B000FF1F0590F491E02D099481E090E0F894EF
:0812C0000C946209F894FFCFC1
:1012C80000000000A80111014001EF0171014F0168
:1012D8006301564D4450565F317C315F564D445042
:1012E800560D0A00564D4450455F003A323A007C8C
:1012F800005F564D445045006E616E00696E660091
:041308006F76660096
:00000001FF
